{
  "contractName": "App",
  "abi": [
    {
      "constant": false,
      "inputs": [
        {
          "name": "lender",
          "type": "address"
        },
        {
          "name": "due",
          "type": "uint256"
        },
        {
          "name": "amt",
          "type": "uint256"
        },
        {
          "name": "interest",
          "type": "uint256"
        },
        {
          "name": "freqPayments",
          "type": "uint8"
        },
        {
          "name": "collat",
          "type": "uint256"
        },
        {
          "name": "expiry",
          "type": "uint256"
        }
      ],
      "name": "makeProposal",
      "outputs": [
        {
          "name": "",
          "type": "uint256"
        }
      ],
      "payable": false,
      "stateMutability": "nonpayable",
      "type": "function"
    },
    {
      "constant": false,
      "inputs": [
        {
          "name": "proposal_id",
          "type": "uint256"
        }
      ],
      "name": "acceptProposal",
      "outputs": [
        {
          "name": "",
          "type": "uint256"
        }
      ],
      "payable": false,
      "stateMutability": "nonpayable",
      "type": "function"
    },
    {
      "constant": true,
      "inputs": [
        {
          "name": "proposal_id",
          "type": "uint256"
        }
      ],
      "name": "rejectProposal",
      "outputs": [
        {
          "name": "",
          "type": "bool"
        }
      ],
      "payable": false,
      "stateMutability": "view",
      "type": "function"
    },
    {
      "constant": true,
      "inputs": [],
      "name": "viewBorrowProposals",
      "outputs": [
        {
          "name": "",
          "type": "uint256[]"
        }
      ],
      "payable": false,
      "stateMutability": "view",
      "type": "function"
    },
    {
      "constant": true,
      "inputs": [],
      "name": "viewLendProposals",
      "outputs": [
        {
          "name": "",
          "type": "uint256[]"
        }
      ],
      "payable": false,
      "stateMutability": "view",
      "type": "function"
    },
    {
      "constant": false,
      "inputs": [
        {
          "name": "proposal_id",
          "type": "uint256"
        }
      ],
      "name": "initiateLoan",
      "outputs": [
        {
          "name": "",
          "type": "uint256"
        }
      ],
      "payable": true,
      "stateMutability": "payable",
      "type": "function"
    },
    {
      "constant": false,
      "inputs": [
        {
          "name": "core_id",
          "type": "uint256"
        }
      ],
      "name": "sendPrincipal",
      "outputs": [],
      "payable": true,
      "stateMutability": "payable",
      "type": "function"
    },
    {
      "constant": false,
      "inputs": [
        {
          "name": "core_id",
          "type": "uint256"
        }
      ],
      "name": "makePayment",
      "outputs": [
        {
          "name": "",
          "type": "bool"
        }
      ],
      "payable": true,
      "stateMutability": "payable",
      "type": "function"
    },
    {
      "constant": false,
      "inputs": [
        {
          "name": "loan_id",
          "type": "uint256"
        }
      ],
      "name": "viewBalance",
      "outputs": [
        {
          "name": "",
          "type": "uint256"
        }
      ],
      "payable": false,
      "stateMutability": "nonpayable",
      "type": "function"
    },
    {
      "constant": false,
      "inputs": [
        {
          "name": "loan_id",
          "type": "uint256"
        }
      ],
      "name": "viewLoanDetails",
      "outputs": [
        {
          "name": "",
          "type": "uint256"
        },
        {
          "name": "",
          "type": "uint256"
        },
        {
          "name": "",
          "type": "uint256"
        },
        {
          "name": "",
          "type": "uint256"
        },
        {
          "name": "",
          "type": "uint8"
        },
        {
          "name": "",
          "type": "uint256"
        }
      ],
      "payable": false,
      "stateMutability": "nonpayable",
      "type": "function"
    }
  ],
  "bytecode": "0x608060405234801561001057600080fd5b506128ec806100206000396000f3006080604052600436106100a4576000357c0100000000000000000000000000000000000000000000000000000000900463ffffffff1680630bd624db146100a95780631bb662501461013f57806338a36484146101805780633cd12a97146101ec5780635114cb521461025857806360c5cc3a146102905780637908cb49146102d157806383f8fd6e14610305578063bc28d87814610325578063cac0fe531461036a575b600080fd5b3480156100b557600080fd5b50610129600480360381019080803573ffffffffffffffffffffffffffffffffffffffff169060200190929190803590602001909291908035906020019092919080359060200190929190803560ff16906020019092919080359060200190929190803590602001909291905050506103dc565b6040518082815260200191505060405180910390f35b34801561014b57600080fd5b5061016a600480360381019080803590602001909291905050506106c2565b6040518082815260200191505060405180910390f35b34801561018c57600080fd5b5061019561081c565b6040518080602001828103825283818151815260200191508051906020019060200280838360005b838110156101d85780820151818401526020810190506101bd565b505050509050019250505060405180910390f35b3480156101f857600080fd5b506102016108b1565b6040518080602001828103825283818151815260200191508051906020019060200280838360005b83811015610244578082015181840152602081019050610229565b505050509050019250505060405180910390f35b61027660048036038101908080359060200190929190505050610946565b604051808215151515815260200191505060405180910390f35b34801561029c57600080fd5b506102bb60048036038101908080359060200190929190505050610b53565b6040518082815260200191505060405180910390f35b6102ef60048036038101908080359060200190929190505050610ce2565b6040518082815260200191505060405180910390f35b610323600480360381019080803590602001909291905050506112f5565b005b34801561033157600080fd5b506103506004803603810190808035906020019092919050505061140f565b604051808215151515815260200191505060405180910390f35b34801561037657600080fd5b5061039560048036038101908080359060200190929190505050611674565b604051808781526020018681526020018581526020018481526020018360048111156103bd57fe5b60ff168152602001828152602001965050505050505060405180910390f35b60006103e6611810565b6103ee611844565b60006080604051908101604052808b81526020018a815260200188600481111561041457fe5b815260200189815250925060c0604051908101604052803373ffffffffffffffffffffffffffffffffffffffff1681526020018c73ffffffffffffffffffffffffffffffffffffffff1681526020016000600381111561047057fe5b81526020018481526020018781526020018681525091506001829080600181540180825580915050906001820390600052602060002090600802016000909192909190915060008201518160000160006101000a81548173ffffffffffffffffffffffffffffffffffffffff021916908373ffffffffffffffffffffffffffffffffffffffff16021790555060208201518160010160006101000a81548173ffffffffffffffffffffffffffffffffffffffff021916908373ffffffffffffffffffffffffffffffffffffffff16021790555060408201518160010160146101000a81548160ff0219169083600381111561056757fe5b0217905550606082015181600201600082015181600001556020820151816001015560408201518160020160006101000a81548160ff021916908360048111156105ad57fe5b02179055506060820151816003015550506080820151816006015560a0820151816007015550505060018080549050039050600360003373ffffffffffffffffffffffffffffffffffffffff1673ffffffffffffffffffffffffffffffffffffffff168152602001908152602001600020819080600181540180825580915050906001820390600052602060002001600090919290919091505550600460008c73ffffffffffffffffffffffffffffffffffffffff1673ffffffffffffffffffffffffffffffffffffffff168152602001908152602001600020819080600181540180825580915050906001820390600052602060002001600090919290919091505550809350505050979650505050505050565b600080600280549050831015156106d857600080fd5b6002838154811015156106e757fe5b9060005260206000200160009054906101000a900473ffffffffffffffffffffffffffffffffffffffff166000806101000a81548173ffffffffffffffffffffffffffffffffffffffff021916908373ffffffffffffffffffffffffffffffffffffffff1602179055506000809054906101000a900473ffffffffffffffffffffffffffffffffffffffff1673ffffffffffffffffffffffffffffffffffffffff166312065fe06040518163ffffffff167c0100000000000000000000000000000000000000000000000000000000028152600401602060405180830381600087803b1580156107d657600080fd5b505af11580156107ea573d6000803e3d6000fd5b505050506040513d602081101561080057600080fd5b8101908080519060200190929190505050905080915050919050565b6060600360003373ffffffffffffffffffffffffffffffffffffffff1673ffffffffffffffffffffffffffffffffffffffff1681526020019081526020016000208054806020026020016040519081016040528092919081815260200182805480156108a757602002820191906000526020600020905b815481526020019060010190808311610893575b5050505050905090565b6060600460003373ffffffffffffffffffffffffffffffffffffffff1673ffffffffffffffffffffffffffffffffffffffff16815260200190815260200160002080548060200260200160405190810160405280929190818152602001828054801561093c57602002820191906000526020600020905b815481526020019060010190808311610928575b5050505050905090565b60008060011515600660003373ffffffffffffffffffffffffffffffffffffffff1673ffffffffffffffffffffffffffffffffffffffff16815260200190815260200160002060009054906101000a900460ff1615151415156109a857600080fd5b6002838154811015156109b757fe5b9060005260206000200160009054906101000a900473ffffffffffffffffffffffffffffffffffffffff166000806101000a81548173ffffffffffffffffffffffffffffffffffffffff021916908373ffffffffffffffffffffffffffffffffffffffff1602179055506000809054906101000a900473ffffffffffffffffffffffffffffffffffffffff1673ffffffffffffffffffffffffffffffffffffffff166315978dbf346040518263ffffffff167c01000000000000000000000000000000000000000000000000000000000281526004016020604051808303818588803b158015610aa657600080fd5b505af1158015610aba573d6000803e3d6000fd5b50505050506040513d6020811015610ad157600080fd5b81019080805190602001909291905050509050600115158115151415610b4a576000600660003373ffffffffffffffffffffffffffffffffffffffff1673ffffffffffffffffffffffffffffffffffffffff16815260200190815260200160002060006101000a81548160ff0219169083151502179055505b80915050919050565b6000610b5d611844565b600183815481101515610b6c57fe5b906000526020600020906008020160c060405190810160405290816000820160009054906101000a900473ffffffffffffffffffffffffffffffffffffffff1673ffffffffffffffffffffffffffffffffffffffff1673ffffffffffffffffffffffffffffffffffffffff1681526020016001820160009054906101000a900473ffffffffffffffffffffffffffffffffffffffff1673ffffffffffffffffffffffffffffffffffffffff1673ffffffffffffffffffffffffffffffffffffffff1681526020016001820160149054906101000a900460ff166003811115610c5057fe5b6003811115610c5b57fe5b8152602001600282016080604051908101604052908160008201548152602001600182015481526020016002820160009054906101000a900460ff166004811115610ca257fe5b6004811115610cad57fe5b815260200160038201548152505081526020016006820154815260200160078201548152505090508060800151915050919050565b6000610cec611844565b600060018054905084108015610d53575060011515600660003373ffffffffffffffffffffffffffffffffffffffff1673ffffffffffffffffffffffffffffffffffffffff16815260200190815260200160002060009054906101000a900460ff16151514155b1515610d5e57600080fd5b600184815481101515610d6d57fe5b906000526020600020906008020160c060405190810160405290816000820160009054906101000a900473ffffffffffffffffffffffffffffffffffffffff1673ffffffffffffffffffffffffffffffffffffffff1673ffffffffffffffffffffffffffffffffffffffff1681526020016001820160009054906101000a900473ffffffffffffffffffffffffffffffffffffffff1673ffffffffffffffffffffffffffffffffffffffff1673ffffffffffffffffffffffffffffffffffffffff1681526020016001820160149054906101000a900460ff166003811115610e5157fe5b6003811115610e5c57fe5b8152602001600282016080604051908101604052908160008201548152602001600182015481526020016002820160009054906101000a900460ff166004811115610ea357fe5b6004811115610eae57fe5b81526020016003820154815250508152602001600682015481526020016007820154815250509150816080015134111515610ee857600080fd5b3373ffffffffffffffffffffffffffffffffffffffff16826000015173ffffffffffffffffffffffffffffffffffffffff16148015610f41575060016003811115610f2f57fe5b82604001516003811115610f3f57fe5b145b156112e957610f4e6118b9565b604051809103906000f080158015610f6a573d6000803e3d6000fd5b506000806101000a81548173ffffffffffffffffffffffffffffffffffffffff021916908373ffffffffffffffffffffffffffffffffffffffff1602179055506000809054906101000a900473ffffffffffffffffffffffffffffffffffffffff1673ffffffffffffffffffffffffffffffffffffffff16638eea60f73484600001518560200151866060015160200151876060015160600151428960600151600001518a60600151604001518b608001516040518a63ffffffff167c0100000000000000000000000000000000000000000000000000000000028152600401808973ffffffffffffffffffffffffffffffffffffffff1673ffffffffffffffffffffffffffffffffffffffff1681526020018873ffffffffffffffffffffffffffffffffffffffff1673ffffffffffffffffffffffffffffffffffffffff1681526020018781526020018681526020018581526020018481526020018360048111156110d357fe5b60ff168152602001828152602001985050505050505050506000604051808303818588803b15801561110457600080fd5b505af1158015611118573d6000803e3d6000fd5b505050505060026000809054906101000a900473ffffffffffffffffffffffffffffffffffffffff1690806001815401808255809150509060018203906000526020600020016000909192909190916101000a81548173ffffffffffffffffffffffffffffffffffffffff021916908373ffffffffffffffffffffffffffffffffffffffff16021790555050600160028054905003905060056000836000015173ffffffffffffffffffffffffffffffffffffffff1673ffffffffffffffffffffffffffffffffffffffff16815260200190815260200160002081908060018154018082558091505090600182039060005260206000200160009091929091909150555060056000836020015173ffffffffffffffffffffffffffffffffffffffff1673ffffffffffffffffffffffffffffffffffffffff1681526020019081526020016000208190806001815401808255809150509060018203906000526020600020016000909192909190915055506001600660003373ffffffffffffffffffffffffffffffffffffffff1673ffffffffffffffffffffffffffffffffffffffff16815260200190815260200160002060006101000a81548160ff0219169083151502179055508092506112ee565b600092505b5050919050565b60028181548110151561130457fe5b9060005260206000200160009054906101000a900473ffffffffffffffffffffffffffffffffffffffff166000806101000a81548173ffffffffffffffffffffffffffffffffffffffff021916908373ffffffffffffffffffffffffffffffffffffffff1602179055506000809054906101000a900473ffffffffffffffffffffffffffffffffffffffff1673ffffffffffffffffffffffffffffffffffffffff16633e8f8343346040518263ffffffff167c01000000000000000000000000000000000000000000000000000000000281526004016000604051808303818588803b1580156113f357600080fd5b505af1158015611407573d6000803e3d6000fd5b505050505050565b6000611419611844565b6001805490508310151561142c57600080fd5b60018381548110151561143b57fe5b906000526020600020906008020160c060405190810160405290816000820160009054906101000a900473ffffffffffffffffffffffffffffffffffffffff1673ffffffffffffffffffffffffffffffffffffffff1673ffffffffffffffffffffffffffffffffffffffff1681526020016001820160009054906101000a900473ffffffffffffffffffffffffffffffffffffffff1673ffffffffffffffffffffffffffffffffffffffff1673ffffffffffffffffffffffffffffffffffffffff1681526020016001820160149054906101000a900460ff16600381111561151f57fe5b600381111561152a57fe5b8152602001600282016080604051908101604052908160008201548152602001600182015481526020016002820160009054906101000a900460ff16600481111561157157fe5b600481111561157c57fe5b815260200160038201548152505081526020016006820154815260200160078201548152505090503373ffffffffffffffffffffffffffffffffffffffff16816000015173ffffffffffffffffffffffffffffffffffffffff16148061161157503373ffffffffffffffffffffffffffffffffffffffff16816000015173ffffffffffffffffffffffffffffffffffffffff16145b801561163857506001600381111561162557fe5b8160400151600381111561163557fe5b14155b156116695760028160400190600381111561164f57fe5b9081600381111561165c57fe5b815250506001915061166e565b600091505b50919050565b6000806000806000806002805490508710151561169057600080fd5b60028781548110151561169f57fe5b9060005260206000200160009054906101000a900473ffffffffffffffffffffffffffffffffffffffff166000806101000a81548173ffffffffffffffffffffffffffffffffffffffff021916908373ffffffffffffffffffffffffffffffffffffffff1602179055506000809054906101000a900473ffffffffffffffffffffffffffffffffffffffff1673ffffffffffffffffffffffffffffffffffffffff16635d3e2fa16040518163ffffffff167c010000000000000000000000000000000000000000000000000000000002815260040160c060405180830381600087803b15801561178e57600080fd5b505af11580156117a2573d6000803e3d6000fd5b505050506040513d60c08110156117b857600080fd5b8101908080519060200190929190805190602001909291908051906020019092919080519060200190929190805190602001909291908051906020019092919050505095509550955095509550955091939550919395565b60806040519081016040528060008152602001600081526020016000600481111561183757fe5b8152602001600081525090565b61012060405190810160405280600073ffffffffffffffffffffffffffffffffffffffff168152602001600073ffffffffffffffffffffffffffffffffffffffff1681526020016000600381111561189857fe5b81526020016118a56118c9565b815260200160008152602001600081525090565b604051610fc3806118fe83390190565b6080604051908101604052806000815260200160008152602001600060048111156118f057fe5b8152602001600081525090560060806040526000600160006101000a81548160ff02191690831515021790555060018060016101000a81548160ff0219169083151502179055506000601060006101000a81548160ff02191690831515021790555034801561006057600080fd5b50610f53806100706000396000f300608060405260043610610083576000357c0100000000000000000000000000000000000000000000000000000000900463ffffffff16806312065fe01461008857806315978dbf146100b357806322f06327146100d55780633e8f83431461012b5780635d3e2fa1146101355780638eea60f714610191578063d4db296f14610226575b600080fd5b34801561009457600080fd5b5061009d610258565b6040518082815260200191505060405180910390f35b6100bb610268565b604051808215151515815260200191505060405180910390f35b3480156100e157600080fd5b50610100600480360381019080803590602001909291905050506106ae565b6040518085815260200184815260200183815260200182815260200194505050505060405180910390f35b6101336106ed565b005b34801561014157600080fd5b5061014a6108aa565b6040518087815260200186815260200185815260200184815260200183600481111561017257fe5b60ff168152602001828152602001965050505050505060405180910390f35b610224600480360381019080803573ffffffffffffffffffffffffffffffffffffffff169060200190929190803573ffffffffffffffffffffffffffffffffffffffff16906020019092919080359060200190929190803590602001909291908035906020019092919080359060200190929190803560ff16906020019092919080359060200190929190505050610906565b005b34801561023257600080fd5b5061023b610cb6565b604051808381526020018281526020019250505060405180910390f35b6000600260090160000154905090565b6000610272610e81565b600080600160009054906101000a900460ff16151561031f576040517f08c379a000000000000000000000000000000000000000000000000000000000815260040180806020018281038252602a8152602001807f6d616b654c6f616e5061796d656e7428292063616c6c6564206265666f72652081526020017f696e69744c6f616e28290000000000000000000000000000000000000000000081525060400191505060405180910390fd5b6001809054906101000a900460ff1615156103c8576040517f08c379a00000000000000000000000000000000000000000000000000000000081526004018080602001828103825260268152602001807f6d616b654c6f616e5061796d656e74282920636f756c646e2774206f6274616981526020017f6e206c6f636b000000000000000000000000000000000000000000000000000081525060400191505060405180910390fd5b60006001806101000a81548160ff0219169083151502179055506080604051908101604052804281526020016002600901600101548152602001348152602001600081525092506002600901600101543403915060008210156104495781600003836060018181525050816002800160008282540392505081905550610561565b600260090160000154821015156104ff5760026009016000015460026009016001015401836040018181525050600260000160009054906101000a900473ffffffffffffffffffffffffffffffffffffffff1673ffffffffffffffffffffffffffffffffffffffff166108fc60026009016000015484039081150290604051600060405180830381858888f193505050501580156104eb573d6000803e3d6000fd5b506000600260090160000181905550610560565b81600260090160000160008282540392505081905550610533600260030160040160009054906101000a900460ff16610cd3565b6064026002600901600001546002600301600101540281151561055257fe5b046002600901600101819055505b5b600260010160009054906101000a900473ffffffffffffffffffffffffffffffffffffffff1673ffffffffffffffffffffffffffffffffffffffff166108fc84606001518560400151019081150290604051600060405180830381858888f193505050501580156105d6573d6000803e3d6000fd5b508260000151600260090160030181905550610617600260090160040154610612600260030160040160009054906101000a900460ff16610da1565b610e6f565b600260090160040181905550600083908060018154018082558091505090600182039060005260206000209060040201600090919290919091506000820151816000015560208201518160010155604082015181600201556060820151816003015550505060006002600901600001541115905060018060016101000a81548160ff02191690831515021790555080935050505090565b6000818154811015156106bd57fe5b90600052602060002090600402016000915090508060000154908060010154908060020154908060030154905084565b600160009054906101000a900460ff161515610797576040517f08c379a000000000000000000000000000000000000000000000000000000000815260040180806020018281038252602a8152602001807f6465647563745072696e636970616c28292063616c6c6564206265666f72652081526020017f696e69744c6f616e28290000000000000000000000000000000000000000000081525060400191505060405180910390fd5b6002600301600001543414151561083c576040517f08c379a00000000000000000000000000000000000000000000000000000000081526004018080602001828103825260328152602001807f77726f6e67207072696e636970616c20616d6f756e742070617373656420746f81526020017f206465647563745072696e636970616c2829000000000000000000000000000081525060400191505060405180910390fd5b600260000160009054906101000a900473ffffffffffffffffffffffffffffffffffffffff1673ffffffffffffffffffffffffffffffffffffffff166108fc349081150290604051600060405180830381858888f193505050501580156108a7573d6000803e3d6000fd5b50565b600080600080600080600260030160000154600260030160010154600260030160020154600260030160030154600260030160040160009054906101000a900460ff166002800154955095509550955095509550909192939495565b61090e610eaa565b610916610ee5565b600160009054906101000a900460ff1615151561099b576040517f08c379a00000000000000000000000000000000000000000000000000000000081526004018080602001828103825260208152602001807f696e69744c6f616e28292063616c6c6564206d6f7265207468616e206f6e636581525060200191505060405180910390fd5b823410151515610a39576040517f08c379a000000000000000000000000000000000000000000000000000000000815260040180806020018281038252602a8152602001807f6e6f7420656e6f75676820636f6c6c61746572616c2070617373656420746f2081526020017f696e69744c6f616e28290000000000000000000000000000000000000000000081525060400191505060405180910390fd5b60a060405190810160405280898152602001610a5486610cd3565b6064028a8a02811515610a6357fe5b048152602001856004811115610a7557fe5b815260200160008152602001610a9388610a8e88610da1565b610e6f565b815250915060c060405190810160405280898152602001888152602001878152602001868152602001856004811115610ac857fe5b815260200184815250905060a0604051908101604052808b73ffffffffffffffffffffffffffffffffffffffff1681526020018a73ffffffffffffffffffffffffffffffffffffffff1681526020016000815260200182815260200183815250600260008201518160000160006101000a81548173ffffffffffffffffffffffffffffffffffffffff021916908373ffffffffffffffffffffffffffffffffffffffff16021790555060208201518160010160006101000a81548173ffffffffffffffffffffffffffffffffffffffff021916908373ffffffffffffffffffffffffffffffffffffffff160217905550604082015181600201556060820151816003016000820151816000015560208201518160010155604082015181600201556060820151816003015560808201518160040160006101000a81548160ff02191690836004811115610c1757fe5b021790555060a082015181600501555050608082015181600901600082015181600001556020820151816001015560408201518160020160006101000a81548160ff02191690836004811115610c6957fe5b02179055506060820151816003015560808201518160040155505090505034600280018190555060018060006101000a81548160ff02191690831515021790555050505050505050505050565b600080600260090160040154600260090160010154915091509091565b6000806004811115610ce157fe5b826004811115610ced57fe5b1415610cfc5760349050610d9c565b60016004811115610d0957fe5b826004811115610d1557fe5b1415610d2457601a9050610d9c565b60026004811115610d3157fe5b826004811115610d3d57fe5b1415610d4c57600c9050610d9c565b60036004811115610d5957fe5b826004811115610d6557fe5b1415610d745760049050610d9c565b600480811115610d8057fe5b826004811115610d8c57fe5b1415610d9b5760029050610d9c565b5b919050565b6000806004811115610daf57fe5b826004811115610dbb57fe5b1415610dca5760079050610e6a565b60016004811115610dd757fe5b826004811115610de357fe5b1415610df257600e9050610e6a565b60026004811115610dff57fe5b826004811115610e0b57fe5b1415610e1a57601e9050610e6a565b60036004811115610e2757fe5b826004811115610e3357fe5b1415610e4257605a9050610e6a565b600480811115610e4e57fe5b826004811115610e5a57fe5b1415610e695760b49050610e6a565b5b919050565b60006201518082028301905092915050565b608060405190810160405280600081526020016000815260200160008152602001600081525090565b60a060405190810160405280600081526020016000815260200160006004811115610ed157fe5b815260200160008152602001600081525090565b60c0604051908101604052806000815260200160008152602001600081526020016000815260200160006004811115610f1a57fe5b81526020016000815250905600a165627a7a72305820e428db7842a623b06ef3e1eabd7324cc388fe5316c88785e0aab44fb044a05160029a165627a7a7230582025a1c827622249c67d0d0eafe38aa065bebf1aaa2e4240817248e91e8e6e2d560029",
  "source": "pragma solidity >=0.4.2 <0.6.0;\r\n\r\n// TODO: Figure out how to use https://github.com/pipermerriam/ethereum-datetime ?\r\n// TODO: Auto transactions prob wont work?\r\n\r\nimport \"./Core.sol\";\r\n\r\ncontract App {\r\n\r\n\r\n    /* \r\n     * The current status of the loan\r\n     */\r\n    enum Status {\r\n        PND,  // Pending\r\n        ACC,  // Accepted\r\n        REJ,  // Rejected\r\n        EXP  // Expired\r\n    }\r\n\r\n    // id = borrower.makeProposal(lender, due, amt, interest, freqPayments, collat, expiry)\r\n    // lender.acceptProposal(id)\r\n    // borrower.initiateLoan(id)\r\n    // \r\n\r\n    /* \r\n     * The terms related to the loan\r\n     */\r\n    struct Terms {\r\n        uint256 due;                     //due_date of the loan\r\n        uint256 amt;                     //amount of the loan\r\n        Core.RepayPeriod freqPayments;   //frequency of loan payments\r\n        uint256 interest;                //annualized interest rate of the loan\r\n    }\r\n\r\n    /* \r\n     * Representation of a loan proposal\r\n     */\r\n    struct Proposal {\r\n        address borrower; //address of the borrower\r\n        address lender;   //address of the lender\r\n        Status status;    //status of the proposal\r\n        Terms terms;      //terms of the proposal\r\n        uint256 collat;    //amount of staked collateral\r\n        uint256 expiry;    // expiration date for the proposal, lender can no longer accept after this\r\n    }\r\n\r\n    Core core;\r\n    Proposal[] private proposalList;\r\n    Core[] private coreList;\r\n    \r\n    mapping (address=>uint256[]) private lendProposals;\r\n    mapping (address=>uint256[]) private borrowProposals;\r\n    mapping (address=>uint256[]) private loanList;\r\n    mapping (address=>bool) private activeBorrowers;\r\n\r\n    function makeProposal(\r\n        address lender,\r\n        uint256 due,\r\n        uint256 amt,\r\n        uint256 interest,\r\n        Core.RepayPeriod freqPayments,\r\n        uint256 collat,\r\n        uint256 expiry\r\n    ) external returns(uint256) {\r\n        Terms memory newTerms = Terms(due, amt, freqPayments, interest);\r\n        Proposal memory newProp = Proposal(msg.sender, lender, Status.PND, newTerms, collat, expiry);\r\n        proposalList.push(newProp);\r\n        uint256 id = proposalList.length - 1;\r\n        lendProposals[msg.sender].push(id);\r\n        borrowProposals[lender].push(id);\r\n        return id;\r\n    }\r\n\r\n    function acceptProposal(uint256 proposal_id) external returns(uint256) {\r\n        // require(proposal_id < proposalList.length, \"acceptProposal() length beyond expected\");\r\n        Proposal memory prop = proposalList[proposal_id];\r\n        return prop.collat;\r\n        // if (prop.lender == msg.sender && prop.status == Status.PND) {\r\n        //     if (prop.expiry < now) {\r\n        //         prop.status = Status.EXP;\r\n        //         return false;\r\n        //     }\r\n        //     prop.status = Status.ACC;\r\n        //     return true;\r\n        // }\r\n        // else {\r\n        //     return false;\r\n        // }\r\n    }\r\n\r\n    function rejectProposal(uint256 proposal_id) external view returns(bool) {\r\n        require(proposal_id < proposalList.length);\r\n        Proposal memory prop = proposalList[proposal_id];\r\n        if ((prop.borrower == msg.sender || prop.borrower == msg.sender) && prop.status != Status.ACC) {\r\n            prop.status = Status.REJ;\r\n            return true;\r\n        }\r\n        return false;\r\n    }\r\n    \r\n    function viewBorrowProposals() external view returns(uint256[] memory) {\r\n        return borrowProposals[msg.sender];\r\n    }\r\n\r\n    function viewLendProposals() external view returns(uint256[] memory) {\r\n        return lendProposals[msg.sender];\r\n    }\r\n\r\n    function initiateLoan(uint256 proposal_id) external payable returns(uint256) {\r\n        require(proposal_id < proposalList.length && activeBorrowers[msg.sender] != true);\r\n        Proposal memory prop = proposalList[proposal_id];\r\n        require(msg.value > prop.collat);\r\n        if (prop.borrower == msg.sender && prop.status == Status.ACC) {\r\n            core = new Core();\r\n            core.initLoan.value(msg.value)(prop.borrower, prop.lender, prop.terms.amt, prop.terms.interest, now, prop.terms.due, prop.terms.freqPayments, prop.collat);\r\n            coreList.push(core);\r\n            uint256 id = coreList.length - 1;\r\n            loanList[prop.borrower].push(id);\r\n            loanList[prop.lender].push(id);\r\n            activeBorrowers[msg.sender] = true;\r\n            return id;\r\n        }\r\n        return 0;\r\n    }\r\n\r\n    function sendPrincipal(uint256 core_id) external payable {\r\n        core = coreList[core_id];\r\n        core.deductPrincipal.value(msg.value)();\r\n    }\r\n\r\n    function makePayment(uint256 core_id) external payable returns(bool) {\r\n        require(activeBorrowers[msg.sender] == true);\r\n        core = coreList[core_id];\r\n        bool completion = core.makeLoanPayment.value(msg.value)();\r\n        if (completion == true) {\r\n            activeBorrowers[msg.sender] = false;\r\n        }\r\n        return completion;\r\n    }\r\n\r\n    function viewBalance(uint256 loan_id) external returns(uint256) {\r\n        require(loan_id < coreList.length);\r\n        core = coreList[loan_id];\r\n        uint256 balance = core.getBalance();\r\n        return balance;\r\n    }\r\n\r\n    function viewLoanDetails(uint256 loan_id) external returns(\r\n        uint256, uint256, \r\n        uint256, uint256, \r\n        Core.RepayPeriod, uint256){\r\n        require(loan_id < coreList.length);\r\n        core = coreList[loan_id];\r\n        return core.getLoanInfo();\r\n    }\r\n\r\n    // function viewPaymentHistory(uint256 loan_id) external returns(Core.PaymentInfo[] memory) {\r\n    //     require(loan_id < coreList.length);\r\n    //     core = coreList[loan_id];\r\n    //     return core.PayHistory();\r\n    // }\r\n}",
  "sourcePath": "C:\\Shreyan\\Code\\Loan\\contracts\\App.sol",
  "compiler": {
    "name": "solc",
    "version": "0.4.24+commit.e67f0147.Emscripten.clang"
  },
  "schemaVersion": "2.0.1",
  "updatedAt": "2018-12-12T21:24:26.761Z"
}