{
  "contractName": "Core",
  "abi": [
    {
      "constant": true,
      "inputs": [
        {
          "name": "",
          "type": "uint256"
        }
      ],
      "name": "PayHistory",
      "outputs": [
        {
          "name": "timestamp",
          "type": "uint256"
        },
        {
          "name": "interest_due",
          "type": "uint256"
        },
        {
          "name": "from_borrower",
          "type": "uint256"
        },
        {
          "name": "from_collateral",
          "type": "uint256"
        }
      ],
      "payable": false,
      "stateMutability": "view",
      "type": "function"
    },
    {
      "constant": false,
      "inputs": [
        {
          "name": "borrower",
          "type": "address"
        },
        {
          "name": "lender",
          "type": "address"
        },
        {
          "name": "amount",
          "type": "uint256"
        },
        {
          "name": "interest",
          "type": "uint256"
        },
        {
          "name": "start",
          "type": "uint256"
        },
        {
          "name": "due",
          "type": "uint256"
        },
        {
          "name": "period",
          "type": "uint8"
        },
        {
          "name": "min_collat",
          "type": "uint256"
        }
      ],
      "name": "initLoan",
      "outputs": [],
      "payable": true,
      "stateMutability": "payable",
      "type": "function"
    },
    {
      "constant": false,
      "inputs": [],
      "name": "deductPrincipal",
      "outputs": [],
      "payable": true,
      "stateMutability": "payable",
      "type": "function"
    },
    {
      "constant": true,
      "inputs": [],
      "name": "getBalance",
      "outputs": [
        {
          "name": "",
          "type": "uint256"
        }
      ],
      "payable": false,
      "stateMutability": "view",
      "type": "function"
    },
    {
      "constant": true,
      "inputs": [],
      "name": "getNextDue",
      "outputs": [
        {
          "name": "",
          "type": "uint256"
        },
        {
          "name": "",
          "type": "uint256"
        }
      ],
      "payable": false,
      "stateMutability": "view",
      "type": "function"
    },
    {
      "constant": true,
      "inputs": [],
      "name": "getLoanInfo",
      "outputs": [
        {
          "name": "",
          "type": "uint256"
        },
        {
          "name": "",
          "type": "uint256"
        },
        {
          "name": "",
          "type": "uint256"
        },
        {
          "name": "",
          "type": "uint256"
        },
        {
          "name": "",
          "type": "uint8"
        },
        {
          "name": "",
          "type": "uint256"
        }
      ],
      "payable": false,
      "stateMutability": "view",
      "type": "function"
    },
    {
      "constant": false,
      "inputs": [],
      "name": "makeLoanPayment",
      "outputs": [
        {
          "name": "",
          "type": "bool"
        }
      ],
      "payable": true,
      "stateMutability": "payable",
      "type": "function"
    }
  ],
  "bytecode": "0x60806040526000600160006101000a81548160ff02191690831515021790555060018060016101000a81548160ff0219169083151502179055506000601060006101000a81548160ff02191690831515021790555034801561006057600080fd5b50610f53806100706000396000f300608060405260043610610083576000357c0100000000000000000000000000000000000000000000000000000000900463ffffffff16806312065fe01461008857806315978dbf146100b357806322f06327146100d55780633e8f83431461012b5780635d3e2fa1146101355780638eea60f714610191578063d4db296f14610226575b600080fd5b34801561009457600080fd5b5061009d610258565b6040518082815260200191505060405180910390f35b6100bb610268565b604051808215151515815260200191505060405180910390f35b3480156100e157600080fd5b50610100600480360381019080803590602001909291905050506106ae565b6040518085815260200184815260200183815260200182815260200194505050505060405180910390f35b6101336106ed565b005b34801561014157600080fd5b5061014a6108aa565b6040518087815260200186815260200185815260200184815260200183600481111561017257fe5b60ff168152602001828152602001965050505050505060405180910390f35b610224600480360381019080803573ffffffffffffffffffffffffffffffffffffffff169060200190929190803573ffffffffffffffffffffffffffffffffffffffff16906020019092919080359060200190929190803590602001909291908035906020019092919080359060200190929190803560ff16906020019092919080359060200190929190505050610906565b005b34801561023257600080fd5b5061023b610cb6565b604051808381526020018281526020019250505060405180910390f35b6000600260090160000154905090565b6000610272610e81565b600080600160009054906101000a900460ff16151561031f576040517f08c379a000000000000000000000000000000000000000000000000000000000815260040180806020018281038252602a8152602001807f6d616b654c6f616e5061796d656e7428292063616c6c6564206265666f72652081526020017f696e69744c6f616e28290000000000000000000000000000000000000000000081525060400191505060405180910390fd5b6001809054906101000a900460ff1615156103c8576040517f08c379a00000000000000000000000000000000000000000000000000000000081526004018080602001828103825260268152602001807f6d616b654c6f616e5061796d656e74282920636f756c646e2774206f6274616981526020017f6e206c6f636b000000000000000000000000000000000000000000000000000081525060400191505060405180910390fd5b60006001806101000a81548160ff0219169083151502179055506080604051908101604052804281526020016002600901600101548152602001348152602001600081525092506002600901600101543403915060008210156104495781600003836060018181525050816002800160008282540392505081905550610561565b600260090160000154821015156104ff5760026009016000015460026009016001015401836040018181525050600260000160009054906101000a900473ffffffffffffffffffffffffffffffffffffffff1673ffffffffffffffffffffffffffffffffffffffff166108fc60026009016000015484039081150290604051600060405180830381858888f193505050501580156104eb573d6000803e3d6000fd5b506000600260090160000181905550610560565b81600260090160000160008282540392505081905550610533600260030160040160009054906101000a900460ff16610cd3565b6064026002600901600001546002600301600101540281151561055257fe5b046002600901600101819055505b5b600260010160009054906101000a900473ffffffffffffffffffffffffffffffffffffffff1673ffffffffffffffffffffffffffffffffffffffff166108fc84606001518560400151019081150290604051600060405180830381858888f193505050501580156105d6573d6000803e3d6000fd5b508260000151600260090160030181905550610617600260090160040154610612600260030160040160009054906101000a900460ff16610da1565b610e6f565b600260090160040181905550600083908060018154018082558091505090600182039060005260206000209060040201600090919290919091506000820151816000015560208201518160010155604082015181600201556060820151816003015550505060006002600901600001541115905060018060016101000a81548160ff02191690831515021790555080935050505090565b6000818154811015156106bd57fe5b90600052602060002090600402016000915090508060000154908060010154908060020154908060030154905084565b600160009054906101000a900460ff161515610797576040517f08c379a000000000000000000000000000000000000000000000000000000000815260040180806020018281038252602a8152602001807f6465647563745072696e636970616c28292063616c6c6564206265666f72652081526020017f696e69744c6f616e28290000000000000000000000000000000000000000000081525060400191505060405180910390fd5b6002600301600001543414151561083c576040517f08c379a00000000000000000000000000000000000000000000000000000000081526004018080602001828103825260328152602001807f77726f6e67207072696e636970616c20616d6f756e742070617373656420746f81526020017f206465647563745072696e636970616c2829000000000000000000000000000081525060400191505060405180910390fd5b600260000160009054906101000a900473ffffffffffffffffffffffffffffffffffffffff1673ffffffffffffffffffffffffffffffffffffffff166108fc349081150290604051600060405180830381858888f193505050501580156108a7573d6000803e3d6000fd5b50565b600080600080600080600260030160000154600260030160010154600260030160020154600260030160030154600260030160040160009054906101000a900460ff166002800154955095509550955095509550909192939495565b61090e610eaa565b610916610ee5565b600160009054906101000a900460ff1615151561099b576040517f08c379a00000000000000000000000000000000000000000000000000000000081526004018080602001828103825260208152602001807f696e69744c6f616e28292063616c6c6564206d6f7265207468616e206f6e636581525060200191505060405180910390fd5b823410151515610a39576040517f08c379a000000000000000000000000000000000000000000000000000000000815260040180806020018281038252602a8152602001807f6e6f7420656e6f75676820636f6c6c61746572616c2070617373656420746f2081526020017f696e69744c6f616e28290000000000000000000000000000000000000000000081525060400191505060405180910390fd5b60a060405190810160405280898152602001610a5486610cd3565b6064028a8a02811515610a6357fe5b048152602001856004811115610a7557fe5b815260200160008152602001610a9388610a8e88610da1565b610e6f565b815250915060c060405190810160405280898152602001888152602001878152602001868152602001856004811115610ac857fe5b815260200184815250905060a0604051908101604052808b73ffffffffffffffffffffffffffffffffffffffff1681526020018a73ffffffffffffffffffffffffffffffffffffffff1681526020016000815260200182815260200183815250600260008201518160000160006101000a81548173ffffffffffffffffffffffffffffffffffffffff021916908373ffffffffffffffffffffffffffffffffffffffff16021790555060208201518160010160006101000a81548173ffffffffffffffffffffffffffffffffffffffff021916908373ffffffffffffffffffffffffffffffffffffffff160217905550604082015181600201556060820151816003016000820151816000015560208201518160010155604082015181600201556060820151816003015560808201518160040160006101000a81548160ff02191690836004811115610c1757fe5b021790555060a082015181600501555050608082015181600901600082015181600001556020820151816001015560408201518160020160006101000a81548160ff02191690836004811115610c6957fe5b02179055506060820151816003015560808201518160040155505090505034600280018190555060018060006101000a81548160ff02191690831515021790555050505050505050505050565b600080600260090160040154600260090160010154915091509091565b6000806004811115610ce157fe5b826004811115610ced57fe5b1415610cfc5760349050610d9c565b60016004811115610d0957fe5b826004811115610d1557fe5b1415610d2457601a9050610d9c565b60026004811115610d3157fe5b826004811115610d3d57fe5b1415610d4c57600c9050610d9c565b60036004811115610d5957fe5b826004811115610d6557fe5b1415610d745760049050610d9c565b600480811115610d8057fe5b826004811115610d8c57fe5b1415610d9b5760029050610d9c565b5b919050565b6000806004811115610daf57fe5b826004811115610dbb57fe5b1415610dca5760079050610e6a565b60016004811115610dd757fe5b826004811115610de357fe5b1415610df257600e9050610e6a565b60026004811115610dff57fe5b826004811115610e0b57fe5b1415610e1a57601e9050610e6a565b60036004811115610e2757fe5b826004811115610e3357fe5b1415610e4257605a9050610e6a565b600480811115610e4e57fe5b826004811115610e5a57fe5b1415610e695760b49050610e6a565b5b919050565b60006201518082028301905092915050565b608060405190810160405280600081526020016000815260200160008152602001600081525090565b60a060405190810160405280600081526020016000815260200160006004811115610ed157fe5b815260200160008152602001600081525090565b60c0604051908101604052806000815260200160008152602001600081526020016000815260200160006004811115610f1a57fe5b81526020016000815250905600a165627a7a72305820e428db7842a623b06ef3e1eabd7324cc388fe5316c88785e0aab44fb044a05160029",
  "source": "pragma solidity >=0.4.2 <0.6.0;\r\n\r\n// TODO: Figure out how to use https://github.com/pipermerriam/ethereum-datetime ?\r\n// TODO: Auto transactions prob wont work?\r\n\r\n\r\ncontract Core {\r\n\r\n//     modifier loaneesOnly {\r\n//       if(msg.sender != loan.actorAccounts.mortgageHolder) {\r\n//          throw;\r\n//       }\r\n//       _;\r\n//    }\r\n\r\n    /**\r\n     * \r\n     */\r\n    enum RepayPeriod {\r\n        WEEKLY,\r\n        BI_WEEKLY,\r\n        MONTHLY,\r\n        QUARTERLY,\r\n        BI_ANNUALLY\r\n    }\r\n\r\n    /**\r\n     * The terms related to the loan\r\n     */\r\n    struct Terms {\r\n        uint256 principal;\r\n        uint256 annual_int_rate;\r\n        uint256 start_date;\r\n        uint256 due_date;\r\n        RepayPeriod period;\r\n        uint256 min_collateral;\r\n    }\r\n\r\n     /**\r\n     * \r\n     */\r\n    struct PaymentInfo {\r\n        uint256 timestamp;\r\n        uint256 interest_due;\r\n        uint256 from_borrower;\r\n        uint256 from_collateral;\r\n    }\r\n\r\n    PaymentInfo[] public PayHistory;\r\n\r\n    // Principal, interest\r\n    // user makes payments every 'period'\r\n    // frequency sepcifies the number of 'period's per year\r\n    // if this payment is < yearlyInterest / numPeriods, subtract rest from collateral\r\n    // yearlyInterest is calculated based on remaining principal\r\n\r\n    struct State {\r\n        uint256 principal_rem;\r\n        uint256 interest;\r\n        RepayPeriod pay_period;\r\n        uint256 last_payed;\r\n        uint256 next_due;\r\n    }\r\n\r\n    struct Loan {\r\n        address borrower;\r\n        address lender;\r\n        uint256 collateral;\r\n        Terms terms;\r\n        State state;\r\n    }\r\n\r\n    bool init_called = false;\r\n    bool mutex = true;\r\n\r\n    Loan loan;\r\n    \r\n    bool collateral_deducted = false;\r\n\r\n    /**\r\n     * \r\n     */\r\n    function initLoan(\r\n        address borrower,\r\n        address lender,\r\n        uint256 amount,\r\n        uint256 interest,\r\n        uint256 start,\r\n        uint256 due,\r\n        RepayPeriod period,\r\n        uint256 min_collat\r\n    ) external payable {\r\n        require(!init_called, \"initLoan() called more than once\");\r\n        require (msg.value >= min_collat, \"not enough collateral passed to initLoan()\");\r\n\r\n        State memory state = State({\r\n            principal_rem: amount,\r\n            last_payed: 0,\r\n            interest: (interest * amount) / (100 * per2Freq(period)),\r\n            pay_period: period,\r\n            next_due: getTime(start, toDays(period))\r\n        });\r\n\r\n        Terms memory terms = Terms({\r\n            principal: amount,\r\n            annual_int_rate: interest,\r\n            start_date: start,\r\n            due_date: due,\r\n            period: period,\r\n            min_collateral: min_collat\r\n        });\r\n\r\n        loan = Loan({\r\n            borrower: borrower,\r\n            lender: lender,\r\n            collateral: 0,\r\n            terms: terms,\r\n            state: state\r\n        });\r\n\r\n        loan.collateral = msg.value;\r\n   \r\n        init_called = true;\r\n    }\r\n\r\n    function deductPrincipal() external payable {\r\n        require (init_called, \"deductPrincipal() called before initLoan()\");\r\n        require (msg.value == loan.terms.principal, \"wrong principal amount passed to deductPrincipal()\");\r\n        loan.borrower.transfer(msg.value);\r\n    }\r\n\r\n    function getBalance() external view returns (uint256) {\r\n        return loan.state.principal_rem;\r\n    }\r\n\r\n    function getNextDue() external view returns (uint256, uint256) {\r\n        return (loan.state.next_due, loan.state.interest);\r\n    }\r\n\r\n    function getLoanInfo() external view returns (\r\n        uint256, uint256,\r\n        uint256, uint256,\r\n        RepayPeriod, uint256\r\n    ) {\r\n        return (\r\n            loan.terms.principal,\r\n            loan.terms.annual_int_rate,\r\n            loan.terms.start_date,\r\n            loan.terms.due_date,\r\n            loan.terms.period,\r\n            loan.collateral\r\n        );\r\n    }\r\n\r\n    function makeLoanPayment() external payable returns (bool) {\r\n        require (init_called, \"makeLoanPayment() called before initLoan()\");\r\n        \r\n        require (mutex, \"makeLoanPayment() couldn't obtain lock\");\r\n        mutex = false;\r\n\r\n        PaymentInfo memory pay_info = PaymentInfo({\r\n            timestamp: now,\r\n            interest_due: loan.state.interest,\r\n            from_borrower: msg.value,\r\n            from_collateral: 0\r\n        });\r\n\r\n        uint256 extra = msg.value - loan.state.interest;\r\n        if (extra < 0) {\r\n            pay_info.from_collateral = -extra;\r\n            loan.collateral -= extra;\r\n        } else if (extra >= loan.state.principal_rem) {\r\n            pay_info.from_borrower = loan.state.interest + loan.state.principal_rem;\r\n            loan.borrower.transfer(extra - loan.state.principal_rem);\r\n            loan.state.principal_rem = 0;\r\n        } else {\r\n            loan.state.principal_rem -= extra;\r\n            loan.state.interest = (loan.terms.annual_int_rate * loan.state.principal_rem) / (100 * per2Freq(loan.terms.period));\r\n        }\r\n\r\n        loan.lender.transfer(pay_info.from_borrower + pay_info.from_collateral);\r\n\r\n        loan.state.last_payed = pay_info.timestamp;\r\n        loan.state.next_due = getTime(loan.state.next_due, toDays(loan.terms.period));\r\n        \r\n        PayHistory.push(pay_info);\r\n\r\n        bool loan_paid = loan.state.principal_rem <= 0;  \r\n        mutex = true;\r\n\r\n        return loan_paid;\r\n    }\r\n\r\n    // called by auto-scheduler\r\n    // if at least interest not paid for this period, deduct it from collateral,\r\n    // otherwise (if collat over) neg balance for user? and deduct from pool\r\n    // function ensureLoanPayment() private {\r\n        \r\n    // }\r\n\r\n    function getDays(uint256 start, uint256 end) private pure returns (uint256) {\r\n        return (end - start) / 86400;\r\n    }\r\n\r\n    function getTime(uint256 start, uint256 num_days) private pure returns (uint256) {\r\n        return start + num_days * 86400;\r\n    }\r\n\r\n    function per2Freq(RepayPeriod period) private pure returns (uint256) {\r\n        if (period == RepayPeriod.WEEKLY) {\r\n            return 52;\r\n        } else if (period == RepayPeriod.BI_WEEKLY) {\r\n            return 26;\r\n        } else if (period == RepayPeriod.MONTHLY) {\r\n            return 12;\r\n        } else if (period == RepayPeriod.QUARTERLY) {\r\n            return 4;\r\n        } else if (period == RepayPeriod.BI_ANNUALLY) {\r\n            return 2;\r\n        } else {\r\n            // Not possible\r\n        }\r\n    }\r\n\r\n    function toDays(RepayPeriod period) private pure returns(uint256) {\r\n        if (period == RepayPeriod.WEEKLY) {\r\n            return 7;\r\n        } else if (period == RepayPeriod.BI_WEEKLY) {\r\n            return 14;\r\n        } else if (period == RepayPeriod.MONTHLY) {\r\n            return 30;\r\n        } else if (period == RepayPeriod.QUARTERLY) {\r\n            return 90;\r\n        } else if (period == RepayPeriod.BI_ANNUALLY) {\r\n            return 180;\r\n        } else {\r\n            // Not possible\r\n        }\r\n    }\r\n\r\n}",
  "sourcePath": "C:\\Shreyan\\Code\\Loan\\contracts\\Core.sol",
  "compiler": {
    "name": "solc",
    "version": "0.4.24+commit.e67f0147.Emscripten.clang"
  },
  "schemaVersion": "2.0.1",
  "updatedAt": "2018-12-12T21:16:36.198Z"
}